:020000040000FA
:06000000BFEF09F0120041
:0A0006000200DC130000000F0000F0
:1000100057000000DA130000570F00000200000034
:10002000736A080ECB6E040E746E1C0E73169896CF
:100030008F96CA92CA80CA841200D9CFE6FFE1CF58
:10004000D9FF020EE126010EDB6A0001606F616BD1
:10005000DF6A080EDF5C26E2FE0EDBCFE6FF010E54
:10006000DF5206E0DFCFF3FFE846FE0BF306FCE1CC
:10007000E552E7140CE0090ED880DF54EA6A600FFD
:10008000E96E000EEA22010EEF6EDB7009D0090E58
:10009000D880DF54EA6A600FE96E000EEA22EF6A48
:1000A000DF2AD7D7010EDBCF6AF0D40EE66E66ECFE
:1000B00009F0E552DF6A0B0EDF5C12E2DF50EA6AFC
:1000C000600FE96E000EEA22EF5003E00C0E73128F
:1000D00002D0F00E7316F2A4FED7F294DF2AEBD70B
:1000E000F00E7316E9EC09F0020EE15C02E2E16A3F
:1000F000E552E16EE552E7CFD9FF1200D60EE66E6B
:100100009CDFE552D60EE66E98DFE552D60EE66E1F
:1001100094DFE552D60EE66E90DFE552D60EE66E1F
:100120008CDFE552D60EE66E88DFE552D60EE66E1F
:1001300084DFE552D60EE66E80DFE552D60EE66E1F
:100140007CDFE552D60EE66E78DFE552D60EE66E1F
:1001500074DFE552D60EE66E70DFE552D60EE66E1F
:100160006CDFE552D60EE66E68DFE552D60EE66E1F
:1001700064DFE552D60EE66E60DFE552D60EE66E1F
:100180005CDFE552D60EE66E58DFE552D60EE66E1F
:1001900054DFE552D60EE66E50DFE552D60EE66E1F
:1001A0004CDFE552D60EE66E48DFE552D60EE66E1F
:1001B00044DFE552D60EE66E40DFE5521200D9CF9D
:1001C000E6FFE1CFD9FF836AFE0EDB501009836E94
:1001D0000000FE0EDB509009836E010EE66ECDEC42
:1001E00009F0E552FE0EDB501009836EE552E7CFB1
:1001F000D9FF1200D9CFE6FFE1CFD9FFFE0EDB50C9
:100200003009836EFE0EDB50B009836E010EE66E80
:10021000CDEC09F0E552FD0EDB502009836EFD0E9A
:10022000DB50A009836EE552E7CFD9FF1200D9CF8A
:10023000E6FFE1CFD9FFE6520A0E146E0E6EFE0EF7
:10024000DBCF09F051EC08F00950DF6E300EDF1003
:10025000836EB00EDF10836E010EE66ECDEC09F0FA
:10026000E552FE0EDBCF14F014C009F00A0E0E6E3C
:1002700051EC08F00550DF6E200EDF10836EA00EEB
:10028000DF10836EE552E552E7CFD9FF1200D9CFD8
:10029000E6FFE1CFD9FFE652DF6ADFCF14F04B0E65
:1002A000E76E1418E8AE02D0E73402D0E750145CD1
:1002B00010E28A908A820C0EE66E82EC09F0E5521A
:1002C0008A808A920C0EE66E82EC09F0E552DF2AF3
:1002D000E4D7E552E552E7CFD9FF1200E66AA7DF7F
:1002E000E55256CFE6FF82EC09F0E5520C0EE66EC1
:1002F0000A0EE66E7FDFE552E55256CFE6FF82EC4E
:1003000009F0E5520B0EE66E0C0EE66E73DFE55259
:10031000E55256CFE6FF82EC09F0E5520D0EE66E8F
:100320000B0EE66E67DFE552E55256CFE6FF82EC34
:1003300009F0E5520E0EE66E0D0EE66E5BDFE5523D
:10034000E55256CFE6FF82EC09F0E5520A0EE66E62
:100350000E0EE66E4FDFE552E55256CFE6FF82EC19
:1003600009F0E552040EE66E0A0EE66E43DFE55232
:10037000E55256CFE6FF82EC09F0E552E66A040E3C
:10038000E66E38DFE552E55256CFE6FF82EC09F023
:10039000E552010EE66EE66A2DDFE552E55256CFD4
:1003A000E6FF82EC09F0E552030EE66E010EE66E02
:1003B00021DFE552E55256CFE6FF82EC09F0E55227
:1003C0000A0EE66E030EE66E15DFE552E55256CFD5
:1003D000E6FF82EC09F0E5520A0EE66EE66E0ADFF1
:1003E000E552E5524B0EE66E82EC09F0E552120042
:1003F000200E8E6E000001D8120089940A0EE66E5F
:1004000082EC09F0E55289841200730E8E6E0000B2
:10041000F4DF1200980E8E6E0000EFDF1200BA0EAD
:100420008E6E0000EADF1200FC0E8E6E0000E5DF2B
:100430001200D9CFE6FFE1CFD9FFE652DF6ADFCF66
:1004400014F0040EE76E1418E8AE02D0E73402D0C0
:10045000E750145C4BE2000E0001E76E6F19E8AE46
:1004600002D06F3503D0E750D8806F551EE2FE0EE4
:10047000DB501BE04AD8E66EDFCFE9FFEA6AE9BE4F
:10048000EA686B0EE926000EEA22E552E750EF6EAD
:10049000DFCFE9FFEA6AE9BEEA686B0EE926000EE3
:1004A000EA22EF504D0820E11DD0FE0EDB501CE18A
:1004B0002CD8E66EDFCFE9FFEA6AE9BEEA686B0E88
:1004C000E926000EEA22E552E750EF6EDFCFE9FFA2
:1004D000EA6AE9BEEA686B0EE926000EEA22EF50EE
:1004E0004D0802E1040EDF6EDF2AA9D7E552E5527E
:1004F000E7CFD9FF12008A808A820A0EE66E82EC6C
:1005000009F0E5528A908A921200D9CFE6FFE1CF36
:10051000D9FF120EE126100EDB6A110EDB6A000114
:10052000706B100EE76E7019E8AE02D0E73402D09F
:10053000E750705D36E2000EE76E6F19E8AE02D04C
:100540006F3503D0E750D8806F5517E26ED9E66E4D
:10055000D9CF14F0DACF15F070C016F0176A16BEB6
:10056000176814501624E96E15501720EA6EE552EC
:10057000E750EF6EAB98AB8811D0D9CF14F0DACF3B
:1005800015F070C016F0176A16BE176814501624BE
:10059000E96E15501720EA6E300EEF6E0001702BD9
:1005A000C0D7706BA8DF100EDB6A110EDB6A100E6D
:1005B000DBCF14F0110EDBCF15F0D890155004E608
:1005C000100E145C000E155829E2100EDB50D924D1
:1005D000E96E110EDB50DA20EA6EEFCF14F0100E48
:1005E000DBCFE9FF110EDBCFEAFF400EE9260F0E4D
:1005F000EA22EF50145C12E1D950100FE96EDACF05
:10060000EAFF0F0EEE1804E1ED5002E14D0EF3D0BB
:10061000100EDB2A110ECBE3DB2AC9D7100EDB6AE2
:10062000110EDB6A100EDBCF14F0110EDBCF15F0CC
:10063000D890155004E6100E145C000E155829E2EF
:10064000100EDB50D924E96E110EDB50DA20EA6E71
:10065000EFCF14F0100EDBCFE9FF110EDBCFEAFF76
:10066000000EE9260F0EEA22EF50145C12E1D95079
:10067000100FE96EDACFEAFF0F0EEE1804E1ED502D
:1006800002E1310EB8D0100EDB2A110ECBE3DB2ACB
:10069000C9D7100EDB6A110EDB6A100EDBCF14F027
:1006A000110EDBCF15F0D890155004E6100E145C37
:1006B000000E155829E2100EDB50D924E96E110EF8
:1006C000DB50DA20EA6EEFCF14F0100EDBCFE9FF3B
:1006D000110EDBCFEAFF100EE9260F0EEA22EF50D3
:1006E000145C12E1D950100FE96EDACFEAFF0F0E59
:1006F000EE1804E1ED5002E1320E7DD0100EDB2A3F
:10070000110ECBE3DB2AC9D7100EDB6A110EDB6AB0
:10071000100EDBCF14F0110EDBCF15F0D890155072
:1007200004E6100E145C000E155829E2100EDB5082
:10073000D924E96E110EDB50DA20EA6EEFCF14F007
:10074000100EDBCFE9FF110EDBCFEAFF200EE9260A
:100750000F0EEA22EF50145C12E1D950100FE96E2F
:10076000DACFEAFF0F0EEE1804E1ED5002E1330E8E
:1007700042D0100EDB2A110ECBE3DB2AC9D7100EB4
:10078000DB6A110EDB6A100EDBCF14F0110EDBCF2B
:1007900015F0D890155004E6100E145C000E155894
:1007A00029E2100EDB50D924E96E110EDB50DA205D
:1007B000EA6EEFCF14F0100EDBCFE9FF110EDBCFA6
:1007C000EAFF300EE9260F0EEA22EF50145C12E128
:1007D000D950100FE96EDACFEAFF0F0EEE1804E1E0
:1007E000ED5002E1340E07D0100EDB2A110ECBE3E0
:1007F000DB2AC9D70D0E146E120EE15C02E2E16A2B
:10080000E552E16E1450E552E7CFD9FF1200D9CF7F
:10081000E6FFE1CFD9FFACA2FED7FE0EDB50AD6EF6
:100820000000E552E7CFD9FF12009E50200B30E1C7
:10083000000E0001E76E6F19E8AE02D06F3503D0ED
:10084000E750D8806F5524E2F250040B1CE0000EF4
:10085000E76E6F19E8AE02D06F3503D0E750D8804D
:100860006F5511E270510FE16F076FC0E6FFDFDCDB
:10087000E552F29400016F5102E1AFDB09D0090E9D
:100880006F5D01E1CCDDABA2D0D7AB98AB880CD0CB
:10089000000E0001E76E6F19E8AE02D06F3503D08D
:1008A000E750D8806F5502E2AE501200300CA4AA77
:1008B000FED76E501200D9CFE6FFE1CFD9FF660E0A
:1008C000E126F5DFE76E020EE7CFDBFFF0DFE76E34
:1008D000030EE7CFDBFFEBDFE76E040EE7CFDBFFB6
:1008E000DB50E76E010EE7CFDBFF030EDF6EDFCFDD
:1008F00014F0010EDB50030FE76E1418E8AE02D0BF
:10090000E73402D0E750145C17E2D1DFE66ED9502D
:10091000020F146EDACF15F0DFCF16F0176A16BE8D
:10092000176814501624E96E15501720EA6EE55228
:10093000E750EF6EDF2ADBD7BADFE66ED950020F41
:10094000146EDACF15F0010EDB50030F166E176A26
:1009500016BE176814501624E96E15501720EA6E5B
:10096000E552E750EF6ED950020F146EDACF15F052
:10097000010EDB04166E176A16BE17681450162493
:10098000E96E15501720EA6EEF50FF0802E1D2D849
:100990004DD0D950020F146EDACF15F0010EDB04E2
:1009A000166E176A16BE176814501624E96E155095
:1009B0001720EA6EEFCF50FFD950020F146EDACF36
:1009C00015F0010EDBCF16F0176A16BE176814502B
:1009D0001624E96E15501720EA6EEFCF51FFD9505B
:1009E000020F146EDACF15F0010EDB28166E176AAF
:1009F00016BE176814501624E96E15501720EA6EBB
:100A0000EFCF52FFD950020F146EDACF15F0010E5E
:100A1000DB50020F166E176A16BE176814501624A4
:100A2000E96E15501720EA6EEFCF53FF660EE15CBA
:100A300002E2E16AE552E16EE552E7CFD9FF12002A
:100A4000D9CFE6FFE1CFD9FF6CA2FED7FE0EDB5077
:100A50006D6EE552E7CFD9FF12007E0EE66EF0DF35
:100A6000E552E66AEDDFE5520D0EE66EE9DFE5528E
:100A7000010EE66EE5DFE552E66AE2DFE552E66882
:100A8000DFDFE552E668DCDFE552E66AD9DFE552F2
:100A9000E668D6DFE552E668D3DFE552110EE66E72
:100AA000CFDFE552110EE66ECBDFE552E66AC8DF16
:100AB000E552E66AC5DFE552E66AC2DFE552E66A5C
:100AC000BFDFE552E00EE66EBBDFE5521200AB9EE3
:100AD000C4DFF1DEAB8E12000E0EC16EC26A800E54
:100AE000C06E010EC26E1200D9CFE6FFE1CFD9FF72
:100AF000020EE126C450DE6EDD6AD9CFE9FFDACFFF
:100B0000EAFFEE50ED6EEF6AC350DE26000EDD22E6
:100B1000DECF14F0DDCF15F014C0F3FF15C0F4FFE5
:100B2000020EE15C02E2E16AE552E16EE552E7CFD6
:100B3000D9FF1200D9CFE6FFE1CFD9FF060EE1269B
:100B4000040EDB6ADBCF14F0E76E1418E8AE02D0B7
:100B5000E73402D0E750145C14E2D9CF14F0DACFB6
:100B600015F0040EDBCF16F0176A16BE1768145086
:100B70001624E96E15501720EA6EEF6A040EDB2A80
:100B8000E1D7AADFC28254CF14F055CF15F0550E2D
:100B90001502F3CF15F0620E1402F3501526550E10
:100BA0001402F3CF14F0F4501526190E1426360E45
:100BB0001522166A15BE16680C6A0D6A010E0E6EB5
:100BC00014C007F015C008F016C009F091EC08F049
:100BD00003C014F004C015F005C016F003C054FFA4
:100BE00004C055FF54CFE6FF55CFE6FF2BEC09F0CC
:100BF000E552E552040EDB6ADBCF14F0E76E141801
:100C0000E8AE02D0E73402D0E750145C01E381D0B3
:100C1000040EDBCF16F0176A16BE176816C0E6FF83
:100C200017C0E6FF32EC09F0E552E7CF17F0E552C6
:100C3000E7CF16F0F3501624146EF4501720156EFB
:100C4000040E0D6E0E6A14C008F015C009F06BECAE
:100C500008F0050E04C0DBFFC282D9CF14F0DACF52
:100C600015F0DBCF16F0176A16BE1768145016245D
:100C7000E96E15501720EA6EEF5025E0040EDBCF29
:100C800016F0176A16BE176816C0E6FF17C0E6FF13
:100C900032EC09F0E552E7CF17F0E552E7CF16F056
:100CA000F3501624146EF4501720156E040E0D6EBA
:100CB0000E6A14C008F015C009F06BEC08F0050EC0
:100CC00004C0DBFFCAD7050EDB50310FE66E040E01
:100CD000DBCFE9FFEA6AE9BEEA68500EE9260F0EAB
:100CE000EA22E552E750EF6ED9CF14F0DACF15F0D3
:100CF000050EDBCF16F0176A16BE176814501624BF
:100D0000E96E15501720EA6E010EEF6E040EDB2A15
:100D100073D7E66ADFEC00F0E552060EE15C02E212
:100D2000E16AE552E16EE552E7CFD9FF12008A9001
:100D300054D900012D0E6F6FE66ADFEC00F0E5522A
:100D40006FC0E6FF17EC01F0E5528E6AAB8E0C0E19
:100D50008A1200012D0E6F6F716BAECF72F09E9AEA
:100D600012008A80F30E8A16AB9E37D9F8EC01F098
:100D7000FA0EE66E82EC09F0E552FA0EE66E82ECAF
:100D800009F0E552FA0EE66E82EC09F0E552FA0E31
:100D9000E66E82EC09F0E552FA0EE66E82EC09F09E
:100DA000E552FA0EE66E82EC09F0E552FA0EE66EB6
:100DB00082EC09F0E552FA0EE66E82EC09F0E5529B
:100DC00012008A80F30E8A16AB9E07D914EC02F04B
:100DD000FA0EE66E82EC09F0E552FA0EE66E82EC4F
:100DE00009F0E552FA0EE66E82EC09F0E552FA0ED1
:100DF000E66E82EC09F0E552FA0EE66E82EC09F03E
:100E0000E552FA0EE66E82EC09F0E552FA0EE66E55
:100E100082EC09F0E552FA0EE66E82EC09F0E5523A
:100E2000120004D810EC00F050D8FED7D38CD38A2F
:100E3000D388926A800E946E956A936A976A040EBC
:100E4000986E0F0E8E6E898454CF18F055CF19F01E
:100E5000420E185E010E195A0F0154515403F3CF7C
:100E600016F0F4CF17F05503F350172655515403DD
:100E7000F3500001172616C008F017C009F018C07B
:100E80000DF019C00EF06BEC08F008C014F009C0AA
:100E900015F008C0E6FF09C0E6FF2BEC09F0E552AB
:100EA000E552AB88240EAC6E330EAF6E900E6B6EB7
:100EB000240E6C6E330E6F6E9D8A9D88A38AA38864
:100EC000F28A0001706B6EEF01F031DF00DEE66A3E
:100ED00019EC02F0E55283D8010807E171C0E6FF82
:100EE000DFEC00F0E552B1EF06F079D8020807E137
:100EF00071C0E6FFDFEC00F0E552E1EF06F00AEC2E
:100F000002F071C0E6FFDFEC00F0E5525ED8040E9F
:100F10000001E76E7119E8AE02D0E73402D0E75065
:100F2000715D46E2000EE76E6F19E8AE02D06F35D4
:100F300003D0E750D8806F553BE2010EE66E19EC06
:100F400002F0E5524CD8010813E1000E0001E76EF3
:100F50006F19E8AE02D06F3503D0E750D8806F55D7
:100F600007E271C0E6FFDFEC00F0E552FADECFD712
:100F700036D8020807E171C0E6FFDFEC00F0E55269
:100F800020DFC5D700016F51C2E0020EE76E6F1976
:100F9000E8AE02D06F3503D0E750D8806F5502E23B
:100FA0000AEC02F071C0E6FFDFEC00F0E552AFD7CB
:100FB000000EE76E6F19E8AE02D06F3503D0E75030
:100FC000D8806F5501E365D8120000012D0E6F6FB8
:100FD000840ED56ED66AD76A1200D56A1200D9CFB0
:100FE000E6FFE1CFD9FFE6520001716BDF6ADFCF88
:100FF00014F0040EE76E1418E8AE02D0E73402D005
:10100000E750145C2DE2DFCFE9FFEA6AE9BEEA6847
:101010006B0EE926000EEA22EFCF14F0DFCFE9FFD6
:10102000EA6AE9BEEA68500EE9260F0EEA22EF509E
:10103000145C03E10001712B11D0DFCFE9FFEA6AF4
:10104000E9BEEA686B0EE926000EEA22EF504D0871
:1010500005E10001050E716F040EDF6EDF2AC7D7B0
:10106000040E0001715D02E1010E0ED0040EE76E68
:101070007119E8AE02D0713503D0E750D8807155B0
:1010800002E2020E01D0000EE552E552E7CFD9FF91
:101090001200AB9EA2DF7EEC00F005EC02F047EF01
:0210A00001F05D
:0E10A200006A0EAE57EF08F00E6C001E09AE8D
:1010B0005CEF08F0096C001EDBEC09F009BE66EF7E
:1010C00008F000AE000C096C056C000C00BE63EF6C
:1010D00008F00188FF0C006A0EAE74EF08F00D6C8A
:1010E0000E1EE86A0E22001E09AE7CEF08F0086CA6
:1010F000091EE86A0922001E99EC09F009BE8CEF6E
:1011000008F000AE000C086C091EE86A0922046CA5
:10111000051EE86A0522000C00BE83EF08F0018876
:10112000FF0C006A0EAE9CEF08F00C6C0D1E0E1E3C
:10113000E86A0D220E22001E09AEA6EF08F0076C29
:10114000081E091EE86A08220922001E49EC09F05F
:1011500009BEB9EF08F000AE000C076C081E091EAE
:10116000E86A08220922036C041E051E04220522D7
:10117000000C00BEADEF08F00188FF0C08C012F0B3
:1011800008500D02F4CF07F0F3CF06F009500E021D
:10119000F4CF09F0F3CF08F00D02F3500726F45016
:1011A0000822E86A092212500E02F3500726F45072
:0811B0000822E86A0922000C84
:0811B800060EF66E000EF76E44
:1011C000000EF86E00010900F550896F0900F55016
:1011D0008A6F03E1896701D03DD00900F550846F23
:1011E0000900F550856F0900F550866F0900090068
:1011F000F550E96E0900F550EA6E09000900090092
:10120000F550876F0900F550886F09000900F6CF87
:101210008BF0F7CF8CF0F8CF8DF084C0F6FF85C04F
:10122000F7FF86C0F8FF0001875302E1885307E00B
:101230000900F550EE6E8707F8E28807F9D78BC0F2
:10124000F6FF8CC0F7FF8DC0F8FF00018907000E84
:061250008A5BBFD712000B
:0A125600FE0EE3CF57FFFF0EE3CFBB
:1012600058FF120058CF09F057CF08F0350E0D6E19
:10127000450E0E6EBEEC08F0062AE86A0722079EAD
:1012800007C058FF06C057FF57CFF3FF58CFF4FFF2
:0212900012004A
:0E129200056A046A036A180EE76ED8900736E4
:1012A000083609360336043605360C50035C0D50FB
:1012B00004580E50055807E30C50035E0D50045AB5
:0C12C0000E50055A072AE72EEAD712004C
:0412CC00D9CFE6FF91
:1012D000DACFE6FFE1CFD9FFE2CFDAFFFD0EDB5038
:1012E0007F0BD56ED76AD66AF294FD0EDBAE02D0C4
:1012F000F28A01D0F29AD58EE552E5CFDAFFE7CF38
:04130000D9FF1200FF
:0C130400FF0EE3501B6EEF0E01D0F30E45
:10131000E76EE72E89EF09F00C0E1A6EE76AE72EEA
:101320008FEF09F01A2E8EEF09F01B2E87EF09F0D0
:021330001200A9
:0E133200056A046A100EE76ED8900836093678
:10134000043605360D50045C0E50055805E30D506B
:0E135000045E0E50055A082AE72EF0D7120050
:02135E00600E1F
:10136000F36E00EE00F00F0E01D81200EA6002D01A
:0E137000EE6AFCD7F350E9601200EE6AFCD77B
:02137E001EEE61
:1013800000F02EEE00F0F86A019CDCEC08F0ECECCA
:0A13900009F011EC07F0FBD7120082
:06139A00FF0EE3501B6E84
:1013A0001B0E00D001D0200EE76EE72EFED71B2EBD
:0613B000FAD700D0120084
:0A13B600056A080EE76ED8900936AC
:1013C00005360E50055C02E3056E092AE72EF7D7B5
:0213D000120009
:0613D200D59EF29A120004
:0213D800120001
:0213DA00010010
:0413DC000234433064
:1013E0003032304335433836310D0A03023443304E
:1013F0003032304534324241330D0A030234433037
:101400003032304332453934370D0A030234433029
:101410003032304236394534340D0A030234433019
:101420003032304637413733430D0A0331323334DB
:031430008D0C968A
:020000040030CA
:0100010008F6
:010003001EDE
:00000001FF
