:020000040000FA
:060000007CEF05F0120088
:0A0006000100540B0000000F000081
:0400100044000000A8
:0C001400736A080ECB6E040E746E1C0E96
:10002000731698968F94CA92CA80CA841200D9CF48
:10003000E6FFE1CFD9FF020EE126010EDB6A0001E7
:10004000606F616BDF6A080EDF5C26E2FE0EDBCFBD
:10005000E6FF010EDF5206E0DFCFF3FFE846FE0BBE
:10006000F306FCE1E552E7140CE0090ED880DF54FA
:10007000EA6A600FE96E000EEA22010EEF6EDB7095
:1000800009D0090ED880DF54EA6A600FE96E000ECD
:10009000EA22EF6ADF2AD7D7010EDBCF6AF0D40E4F
:1000A000E66E1FEC05F0E552DF6A0B0EDF5C12E234
:1000B000DF50EA6A600FE96E000EEA22EF5003E0BB
:1000C0000C0E731202D0F00E7316F2A4FED7F29447
:1000D000DF2AEBD7F00E7316A6EC05F0020EE15CFA
:1000E00002E2E16AE552E16EE552E7CFD9FF120084
:1000F00003D890DF21D8FED7D38CD38AD388926AD5
:10010000800E946E956A936A976A400E986E8986FF
:10011000900EAB6E240EAC6E330EAF6E900E6B6E07
:10012000240E6C6E330E6F6E9D8A9D88A38AA38801
:10013000F28A0001716B1200F1D844D8E66A5AD9EC
:10014000E552B1D8000903E03FD8E1EF01F035D91D
:100150003BD89FD8040E0001725D27E0000EE76EC9
:100160006F19E8AE02D06F3503D0E750D8806F55D5
:100170001CE2010EE66E3ED9E55295D800090FE06B
:10018000000E0001E76E6F19E8AE02D06F3503D0A4
:10019000E750D8806F5503E217D813D9DBD7000199
:1001A0006F51D8E00AD910D8D5D7000EE76E6F1975
:1001B000E8AE02D06F3503D0E750D8806F5501E329
:1001C000EBD8120096EF04F0836A100E0001721152
:1001D000836E0000900E00017211836E010EE66EB8
:1001E0008AEC05F0E552100E00017211836E1200C8
:1001F0000A0E106E0E6E6FC009F03BEC05F009C0E0
:1002000070F0300E00017011836EB00E7011836EAD
:10021000010EE66E8AEC05F0E5526FC009F00A0E99
:100220000E6E3BEC05F005C070F0200E0001701161
:10023000836EA00E7011836E1200D9CFE6FFE1CF5E
:10024000D9FFE652DF6ADFCF10F04B0EE76E1018D1
:10025000E8AE02D0E73402D0E750105C10E28A9298
:100260008A800C0EE66E55EC05F0E5528A828A9083
:100270000C0EE66E55EC05F0E552DF2AE4D7E552A8
:10028000E552E7CFD9FF1200D60EE66ED0DEE5527A
:1002900012000001140E6F6F840ED56ED66AD76AF5
:1002A0001200D56A1200D9CFE6FFE1CFD9FFE6529E
:1002B0000001726BDF6ADFCF10F0040EE76E1018DA
:1002C000E8AE02D0E73402D0E750105C1BE2DFCF8B
:1002D000E9FFEA6AE9BEEA686B0EE926000EEA2247
:1002E000EFCF10F0DFCFE9FFEA6AE9BEEA68400E1F
:1002F000E9260F0EEA22EF50105C02E10001722B9A
:10030000DF2AD9D7040E0001725D02E1010E01D08F
:10031000000EE552E552E7CFD9FF12008A920001A4
:10032000140E6F6F836A100E836E900E836E010E33
:10033000E66E8AEC05F0E5520A0E106E0E6E6FC086
:1003400009F03BEC05F009C070F0300E00017011AF
:10035000836EB00E7011836E010EE66E8AEC05F0AE
:10036000E5526FC009F00A0E0E6E3BEC05F005C0B9
:1003700070F0200E00017011836EA00E7011836E5C
:100380008A84140E6F6FAECF73F09E9A12004E0ED9
:100390008E6E000006D8120084DF76DF0AD81DEFCB
:1003A00001F08996460EE66E55EC05F0E552898619
:1003B00012006D0E8E6E00001200730E8E6E000025
:1003C00012008A828A946DDFE2DFFA0EE66E55EC47
:1003D00005F0E552FA0EE66E55EC05F0E552FA0E20
:1003E000E66E55EC05F0E552FA0EE66E55EC05F0BA
:1003F000E5521200D9CFE6FFE1CFD9FFE652DF6A1E
:10040000DFCF10F0040EE76E1018E8AE02D0E7342C
:1004100002D0E750105C2BE2000E0001E76E6F196E
:10042000E8AE02D06F3503D0E750D8806F550CE2AC
:10043000FE0EDB5009E02AD8E66EDFCFE9FFEA6A5C
:10044000E9AE0CD0EA680AD0FE0EDB500EE11ED8F1
:10045000E66EDFCFE9FFEA6AE9BEEA686B0EE926DD
:10046000000EEA22E552E750EF6EDF2AC9D7E552C7
:10047000E552E7CFD9FF12008A828A800A0EE66E23
:1004800055EC05F0E5528A928A901200D9CFE6FF2A
:10049000E1CFD9FF120EE126100EDB6A110EDB6AE6
:1004A0000001716B100EE76E7119E8AE02D0E734EF
:1004B00002D0E750715D36E2000EE76E6F19E8AECC
:1004C00002D06F3503D0E750D8806F5517E225D999
:1004D000E66ED9CF10F0DACF11F071C012F0136AC6
:1004E00012BE136810501224E96E11501320EA6EE8
:1004F000E552E750EF6EAB98AB8811D0D9CF10F032
:10050000DACF11F071C012F0136A12BE13681050E6
:100510001224E96E11501320EA6E300EEF6E0001C6
:10052000712BC0D7716BA8DF100EDB6A110EDB6A6E
:10053000100EDBCF10F0110EDBCF11F0D890115060
:1005400004E6100E105C000E115829E2100EDB506C
:10055000D924E96E110EDB50DA20EA6EEFCF10F0ED
:10056000100EDBCFE9FF110EDBCFEAFF000EE9260C
:100570000F0EEA22EF50105C12E1D950100FE96E15
:10058000DACFEAFF0F0EEE1804E1ED5002E1310E72
:10059000B8D0100EDB2A110ECBE3DB2AC9D7100E20
:1005A000DB6A110EDB6A100EDBCF10F0110EDBCF11
:1005B00011F0D890115004E6100E105C000E115886
:1005C00029E2100EDB50D924E96E110EDB50DA203F
:1005D000EA6EEFCF10F0100EDBCFE9FF110EDBCF8C
:1005E000EAFF100EE9260F0EEA22EF50105C12E12E
:1005F000D950100FE96EDACFEAFF0F0EEE1804E1C2
:10060000ED5002E1320E7DD0100EDB2A110ECBE34D
:10061000DB2AC9D7100EDB6A110EDB6A100EDBCFA6
:1006200010F0110EDBCF11F0D890115004E6100E2F
:10063000105C000E115829E2100EDB50D924E96E2F
:10064000110EDB50DA20EA6EEFCF10F0100EDBCF88
:10065000E9FF110EDBCFEAFF200EE9260F0EEA229A
:10066000EF50105C12E1D950100FE96EDACFEAFFBB
:100670000F0EEE1804E1ED5002E1330E42D0100EE1
:10068000DB2A110ECBE3DB2AC9D7100EDB6A110E71
:10069000DB6A100EDBCF10F0110EDBCF11F0D8901B
:1006A000115004E6100E105C000E115829E2100ED5
:1006B000DB50D924E96E110EDB50DA20EA6EEFCF61
:1006C00010F0100EDBCFE9FF110EDBCFEAFF300E8A
:1006D000E9260F0EEA22EF50105C12E1D950100FFC
:1006E000E96EDACFEAFF0F0EEE1804E1ED5002E1F9
:1006F000340E07D0100EDB2A110ECBE3DB2AC9D74C
:100700000D0E106E120EE15C02E2E16AE552E16E3E
:100710001050E552E7CFD9FF12009E50200B29E17F
:10072000000E0001E76E6F19E8AE02D06F3503D0FE
:10073000E750D8806F551DE2F250040B15E0000E13
:10074000E76E6F19E8AE02D06F3503D0E750D8805E
:100750006F550AE2715108E16F074ADDF29400011A
:100760006F5102E19EDD05D0ABA2D7D7AB98AB8825
:100770000CD0000E0001E76E6F19E8AE02D06F35A5
:1007800003D0E750D8806F5502E2AE501200300C13
:10079000D9CFE6FFE1CFD9FFACA2FED7FE0EDB50EA
:1007A000AD6E0000E552E7CFD9FF1200A4AAFED734
:1007B0006E501200D9CFE6FFE1CFD9FF660EE126D9
:1007C000F5DFE76E020EE7CFDBFFF0DFE76E030E2B
:1007D000E7CFDBFFEBDFE76E040EE7CFDBFFDB509D
:1007E000E76E010EE7CFDBFF030EDF6EDFCF10F009
:1007F000010EDB50030FE76E1018E8AE02D0E734AD
:1008000002D0E750105C17E2D1DFE66ED950020F3C
:10081000106EDACF11F0DFCF12F0136A12BE136838
:1008200010501224E96E11501320EA6EE552E75081
:10083000EF6EDF2ADBD7D950020F106EDACF11F03E
:10084000010EDB04126E136A12BE136810501224DC
:10085000E96E11501320EA6EEFCF40FFD950020F1E
:10086000106EDACF11F0010EDBCF12F0136A12BE58
:10087000136810501224E96E11501320EA6EEFCF66
:1008800041FFD950020F106EDACF11F0010EDB28B4
:10089000126E136A12BE136810501224E96E1150C2
:1008A0001320EA6EEFCF42FFD950020F106EDACF5D
:1008B00011F0010EDB50020F126E136A12BE1368A4
:1008C00010501224E96E11501320EA6EEFCF43FF4F
:1008D0006DDFE66ED950020F106EDACF11F0010E07
:1008E000DB50030F126E136A12BE136810501224ED
:1008F000E96E11501320EA6EE552E750EF6E660E76
:10090000E15C02E2E16AE552E16EE552E7CFD9FF30
:100910001200D9CFE6FFE1CFD9FF6CA2FED7FE0EC1
:10092000DB506D6EE552E7CFD9FF12007E0EE66E0A
:10093000F0DFE552E66AEDDFE5520D0EE66EE9DF27
:10094000E552010EE66EE5DFE552E66AE2DFE552CA
:10095000E668DFDFE552E668DCDFE552E66AD9DF0C
:10096000E552E668D6DFE552E668D3DFE552110EC0
:10097000E66ECFDFE552110EE66ECBDFE552E66A9A
:10098000C8DFE552E66AC5DFE552E66AC2DFE55236
:10099000E66ABFDFE552E00EE66EBBDFE55212000D
:1009A000060EF66E000EF76E000EF86E0F010900CF
:1009B000F550496F0900F5504A6F03E1496701D0CE
:1009C0003DD00900F550446F0900F550456F09000E
:1009D000F550466F09000900F550E96E0900F55021
:1009E000EA6E090009000900F550476F0900F5504B
:1009F000486F09000900F6CF4BFFF7CF4CFFF8CF47
:100A00004DFF44CFF6FF45CFF7FF46CFF8FF0F016C
:100A1000475302E1485307E00900F550EE6E4707DF
:100A2000F8E24807F9D74BCFF6FF4CCFF7FF4DCF91
:0E0A3000F8FF0F014907000E4A5BBFD7120006
:020A3E00D9CF0E
:100A4000E6FFDACFE6FFE1CFD9FFE2CFDAFFFD0E16
:100A5000DB507F0BD56ED76AD66AF294FD0EDBAE03
:100A600002D0F28A01D0F29AD58EE552E5CFDAFFB4
:060A7000E7CFD9FF1200E0
:0A0A7600006A0EAE41EF05F00E6CB1
:100A8000001E09AE46EF05F0096C001E98EC05F05B
:100A900009BE50EF05F000AE000C096C056C000CAF
:0A0AA00000BE4DEF05F00188FF0CC9
:060AAA00FF0EE350156E83
:100AB000EF0E01D0F30EE76EE72E5CEF05F00C0EA3
:100AC000146EE76AE72E62EF05F0142E61EF05F071
:080AD000152E5AEF05F012008B
:080AD800600EF36E00EE00F069
:100AE0000F0E01D81200EA6002D0EE6AFCD7F35074
:080AF000E9601200EE6AFCD778
:080AF8001EEE00F02EEE00F0EE
:100B0000F86A019CD0EC04F0A9EC05F078EC00F058
:040B1000FBD71200FD
:0C0B1400FF0EE350156E1B0E00D001D048
:100B2000200EE76EE72EFED7152EFAD700D0120062
:100B3000056A080EE76ED890093605360E50055C3A
:0C0B400002E3056E092AE72EF7D7120029
:040B4C00D59EF29AA6
:020B5000120091
:020B520012008F
:0C0B540002344530303034384639423528
:100B6000450D0A03023443303033353331444139C3
:100B7000320D0A03023834303033333846343337D9
:100B8000420D0A03023834303033333841333530C4
:080B9000380D0A033131313147
:020000040030CA
:0100010008F6
:010003001EDE
:00000001FF
